:020000040800F2
:1000000000000220411A00085D1800086518000869
:100010006D180008751800087D1800080000000021
:10002000000000000000000000000000851800082B
:100030009318000800000000A1180008AF1800087D
:10004000911A0008911A0008911A0008911A0008E4
:10005000911A0008911A0008911A0008911A0008D4
:10006000911A0008911A0008911A0008911A0008C4
:10007000911A0008911A0008911A0008911A0008B4
:10008000911A0008911A0008911A0008911A0008A4
:10009000911A0008911A0008911A0008911A000894
:1000A000911A0008911A0008911A0008911A000884
:1000B000911A0008911A0008911A0008911A000874
:1000C000911A0008911A0008911A0008911A000864
:1000D000911A0008911A0008911A0008911A000854
:1000E000911A0008911A0008911A0008911A000844
:1000F000911A0008911A0008911A0008911A000834
:10010000911A0008911A0008911A0008911A000823
:10011000911A0008911A0008911A0008911A000813
:10012000911A0008911A0008911A0008911A000803
:10013000911A0008911A0008911A0008911A0008F3
:10014000911A0008911A0008911A0008911A0008E3
:10015000911A0008911A0008911A0008911A0008D3
:10016000911A0008911A0008911A0008911A0008C3
:10017000911A0008911A0008911A00080000000066
:08018000911A0008911A000811
:1001900010B5054C237833B9044B13B10448AFF3C1
:1001A00000800123237010BD6800002000000000C3
:1001B000AC4A000808B5034B1BB103490348AFF331
:1001C000008008BD000000006C000020AC4A000860
:1001D00001F0FF01102A2BDB10F0070F08D010F8F8
:1001E000013B013A8B422DD010F0070F42B3F6D1FC
:1001F000F0B441EA012141EA014122F007047FF015
:1002000000070023F0E80256083C85EA010586EA6B
:10021000010685FA47F5A3FA87F586FA47F6A5FAA7
:1002200087F68EB9EED1F0BC01F0FF0102F00702B3
:1002300032B110F8013B013A83EA010313B1F8D15E
:100240000020704701387047002D06BF354603383F
:10025000073815F0010F07D1013015F4807F02BF78
:10026000013015F4C03F0130F0BC0138704700BFC9
:1002700053B94AB9002908BF00281CBF4FF0FF310D
:100280004FF0FF3000F088B9ADF1080C6DE904CEF5
:1002900000F006F8DDF804E0DDE9022304B0704761
:1002A0002DE9F047089D8E4604468846002B4AD12A
:1002B0008A42174662D9B2FA82F64EB1C6F12003DD
:1002C00001FA06F820FA03F3B74043EA0808B440FD
:1002D0004FEA174E1FFA87FCB8FBFEF1230C0EFB0A
:1002E000118843EA084301FB0CF29A4209D9FB1832
:1002F00001F1FF3080F0EA809A4240F2E780023953
:100300003B449A1AA3B2B2FBFEF00EFB102243EA62
:10031000024300FB0CFC9C4509D9FB1800F1FF329D
:1003200080F0D6809C4540F2D3803B44023840EABE
:100330000140A3EB0C0300211DB1F3400022C5E9ED
:100340000032BDE8F0878B4205D90DB1C5E9000147
:1003500000210846F5E7B3FA83F1002946D1734539
:1003600002D3824200F20581841A6EEB030201205F
:100370009046002DE5D0C5E90048E2E7002A00F0EC
:100380009080B2FA82F6002E40F0A4808A1A030C04
:100390004FEA174E80B2BCB20121B2FBFEFC0EFB4D
:1003A0001C2243EA024304FB0CF29A4207D9FB18D1
:1003B0000CF1FF3802D29A4200F2E080C4469B1A48
:1003C000B3FBFEF20EFB123340EA034302FB04F4DC
:1003D0009C4207D9FB1802F1FF3002D29C4200F286
:1003E000CA8002461B1B42EA0C40A5E7C1F1200669
:1003F0008B4022FA06F71F430EFA01F420FA06F3A7
:100400002EFA06FE4FEA1749234300FA01F81FFAB5
:1004100087FCBEFBF9F01C0C09FB10EE44EA0E440D
:1004200000FB0CFEA64502FA01F209D93C1900F1C5
:10043000FF3A80F09C80A64540F2998002383C4407
:10044000A4EB0E041FFA83FEB4FBF9F309FB13447B
:100450004EEA044403FB0CFCA44508D93C1903F103
:10046000FF3E80F08280A4457FD9023B3C4443EAB2
:100470000040A4EB0C04A0FB02EC64457346E1468B
:1004800062D35FD05DB1B8EB030264EB090404FAF8
:1004900006F622FA01F31E43CC40C5E900640021B0
:1004A0004FE7B1FBF2FC010C41EA0E4180B240EA99
:1004B00001423B4638463C46B846BE462026B1FB84
:1004C000F7F1A2EB080241EA0C4166E7014618E7A2
:1004D00010462CE7C6F120022EFA02F3B740B140D5
:1004E00020FA02F24FEA174E0A43B3FBFEF8BCB201
:1004F0000EFB1833110C41EA034108FB04F9B0402C
:1005000089454FEA104380B23ED9791808F1FF3C83
:1005100001D289451FD8A1EB0901B1FBFEF909FB06
:1005200004F80EFB191192B242EA0142424529D267
:10053000BA1809F1FF31C4D24245C2D2A9F1020171
:100540003A44BEE7F0459DD2BEEB02036CEB070CCC
:100550000138E14696E7A7EB09094944A8F1020CE6
:10056000B1FBFEF909FB04F8DBE773467FE7504671
:1005700066E70846FDE63B44023A33E7ACF1020C7D
:100580003B441CE749469CE7A1EB0901C446B1FB8B
:10059000FEF909FB04F8C4E7704700BF80B584B0DA
:1005A00000AF78600B46FB707B681B68FA781146D9
:1005B000184600F039FB7B681B68184600F054FBB6
:1005C0000346FB737B681B680121184600F0F1FAB3
:1005D000FB7B18461037BD4680BD80B582B000AFAA
:1005E00078600B46FB701346BB707B681B6800216C
:1005F000184600F0DEFA7B681A68FB7863F07F0328
:10060000DBB21946104600F00FFB7B681B68BA7816
:100610001146184600F008FB7B681B68012118464C
:1006200000F0C7FA00BF0837BD4680BD90B587B05F
:1006300000AFF8607A601A460B46FB721346BB7235
:10064000BB7A012B27D9FB681B680021184600F0F4
:10065000B0FAFB681B68FA7A1146184600F0E4FA13
:100660000023FB750CE0FB681968FB7D7A68D418E1
:10067000084600F0F9FA03462370FB7D0133FB7551
:10068000FA7DBB7A9A42EED3FB681B6801211846BB
:1006900000F08FFA00E000BF1C37BD4690BD80B56A
:1006A00086B000AFF8607A601A460B46FB721346BC
:1006B000BB72BB7A012B29D9FB681B680021184645
:1006C00000F077FAFB681A68FB7A63F07F03DBB20D
:1006D0001946104600F0A8FA0023FB750BE0FB68F2
:1006E0001868FB7D7A6813441B78194600F09CFA61
:1006F000FB7D0133FB75FA7DBB7A9A42EFD3FB6831
:100700001B680121184600F054FA00E000BF1837BA
:10071000BD4680BD80B586B000AF7860786800F0D7
:100720000DF90F2000F0C6FA786800F017F97B6821
:10073000D3E902234FF000004FF00001D90441EA51
:100740005231D0046F4A4FF00003FFF791FD02468B
:100750000B46C7E90423D7E904014FF000024FF02C
:100760000003020C42EA01420B0CD3B23B73D7E9FF
:1007700004014FF000024FF00003020A42EA016256
:100780000B0AD3B27B733B7CBB7307F10C020323D0
:1007900006217868FFF783FF342239217868FFF754
:1007A0001CFF7B681B7C1A46574B9B5C1A46092131
:1007B0007868FFF712FF0B220B217868FFF70DFF17
:1007C00023220C217868FFF708FF7B685B7C1A46C0
:1007D0004E4B9B5C062B47D17B689B7C1A464C4B4F
:1007E0009B5C1B01DAB27B68DB7C1946494B5B5C86
:1007F0005B00DBB21344DBB20133DBB21A461D21CE
:100800007868FFF7EAFE7B685B7C1A463F4B9B5C8F
:100810001B01DAB27B681B7D19463F4B5B5C9B007A
:10082000DBB21344DBB20333DBB21A461E21786815
:10083000FFF7D3FE31217868FFF7B0FE0346FB7364
:10084000FB7B23F00703FB73FB7B43F00503FB7388
:10085000FB7B1A4631217868FFF7BFFE0C22372157
:100860007868FFF7BAFE29E07B689B7C1A46284B24
:100870009B5C1B01DAB27B68DB7C1946254B5B5C19
:100880005B00DBB21344DBB21A461D217868FFF728
:10089000A4FE7B685B7C1A461C4B9B5C1B01DAB296
:1008A0007B681B7D19461C4B5B5C9B00DBB21344D1
:1008B000DBB21A461E217868FFF78FFE042226213C
:1008C0007868FFF78AFE08221F217868FFF785FE07
:1008D000002220217868FFF780FE08222121786815
:1008E000FFF77BFE012241217868FFF776FE7B68E7
:1008F000002283F81721786800F010F800BF18373D
:10090000BD4680BD0048E8013C500008405000084A
:1009100048500008545000085850000880B582B074
:1009200000AF7860092201217868FFF756FE7B68E6
:1009300001229A7500BF0837BD4680BD80B582B0E0
:1009400000AF7860082201217868FFF746FE7B68D7
:1009500000229A7500BF0837BD4680BD80B582B0C1
:1009600000AF7860882201217868FFF736FE00BF6B
:100970000837BD4680BD80B582B000AF7860FF22E9
:1009800012217868FFF729FE00BF0837BD4680BDF9
:1009900080B586B000AFF8600B467A60FB72FB68EA
:1009A000FA7A5A75F868FFF7B5FE84224D21F86887
:1009B000FFF713FEFF222421F868FFF70EFE012245
:1009C0004021F868FFF709FE3F221121F868FFF780
:1009D00004FEF868FFF7CFFFFB7A1A462221F86879
:1009E000FFF7FBFD0F21F868FFF7D8FD0346FB7505
:1009F000FB7D1A460D21F868FFF7EFFD8D220121DE
:100A0000F868FFF7EAFDFB68002283F81721182138
:100A1000F868FFF7C3FD034603F00403042B04D179
:100A2000FB6803229A75012313E07B68013B7B601E
:100A30007B68002B09D1FB681B68184600F0D0F8D2
:100A4000F868FFF767FE002303E0012000F032F9A9
:100A5000DDE718461837BD4680BD80B584B000AFCD
:100A600078607B681B68184600F02FF90346002B5E
:100A700030D07B6817334FF480720021184603F0A2
:100A800085FA10217868FFF789FD0346BB73BB7BAD
:100A90001A460D217868FFF7A0FD7B685B7C002B70
:100AA00003D17B685B7DFB7305E013217868FFF75A
:100AB00075FD0346FB737B6803F11702FB7B002186
:100AC0007868FFF7B3FD7B68FA7B83F817217868B5
:100AD000FFF751FF7B6893F8173118461037BD4672
:100AE00080BD80B584B000AFF860C7E90023FB6823
:100AF0001B68184600F048F8F968D7E90023C1E9F7
:100B00000223FB683A7E1A74FB683A7F5A74FB68CA
:100B100097F820209A74FB6897F82420DA74FB6811
:100B200097F828201A75FB6897F82C205A75F868F2
:100B3000FFF7F0FD00BF1037BD4680BD80B584B023
:100B400000AFF860B9601346FB71FB6893F817318A
:100B5000FA799A4203D0FB6893F81731FB71FB686E
:100B60001733FA791946B86803F08BFAFB79BA683B
:100B7000134400221A70FB68002283F81721FB79C6
:100B800018461037BD4680BD80B582B000AF786092
:100B90000121786800F00DF87B6858687B681B6855
:100BA0009BB20122194601F0A5FA00BF0837BD46E5
:100BB00080BD80B582B000AF786039607B685869CD
:100BC0007B681B6999B23B68012B0CBF0123002392
:100BD000DBB21A4601F08EFA00BF0837BD4680BD71
:100BE00080B582B000AF786001217868FFF7E1FF3F
:100BF0007B6858687B681B689BB20022194601F02D
:100C000079FA012000F056F87B6858687B681B6809
:100C10009BB20122194601F06DFA642000F04AF8F7
:100C200000BF0837BD4680BD80B582B000AF786098
:100C30000B46FB7000217868FFF7BBFF7B68986963
:100C4000F91C4FF47A73012201F0A9FF00BF7B6801
:100C50009B69184602F090FA0346012BF7D100BFBA
:100C600000BF0837BD4680BD80B586B002AF786052
:100C70000023FB730023BB7300217868FFF799FF03
:100C80007B68986907F10E0207F10F014FF47A7340
:100C90000093012302F0C7F800BF7B689B691846E8
:100CA00002F06AFA0346012BF7D1BB7B18461037D6
:100CB000BD4680BD80B582B000AF7860786800F036
:100CC0005BFF00BF0837BD4680BD80B582B000AF76
:100CD00078607B68DA687B689B689BB2194610462F
:100CE00001F0F0F90346012B0CBF01230023DBB216
:100CF00018460837BD4680BD80B588B000AF07F103
:100D00000C0300221A605A609A60DA601A610023AC
:100D1000BB60384B1B6B374A43F004031363354BFE
:100D20001B6B03F00403BB60BB6800237B60314B8B
:100D30001B6B304A43F0010313632E4B1B6B03F014
:100D400001037B607B6800233B602A4B1B6B294AB5
:100D500043F002031363274B1B6B03F002033B605A
:100D60003B6801221021244801F0C4F9002220210F
:100D7000214801F0BFF901220221204801F0BAF90F
:100D80004FF40053FB6000233B6100237B6107F1BC
:100D90000C0319461A4800F0F9FF3023FB600123C9
:100DA0003B6100237B610023BB6107F10C03194603
:100DB000114800F0EBFF0123FB6000233B6100239F
:100DC0007B6107F10C0319460C4800F0DFFF02239A
:100DD000FB6001233B6100237B610023BB6107F1C2
:100DE0000C031946054800F0D1FF00BF2037BD466F
:100DF00080BD00BF003802400000024000040240F5
:100E00000008024080B584B000AFF860B9607A6035
:100E10007B689AB26423B968034802F0F1FA7B68F0
:100E200018461037BD4680BD7002002080B500AF67
:100E300000224FF47041024801F05CF900BF80BD10
:100E4000000C024080B500AF01224FF4004102487F
:100E500001F050F900BF80BD000C024080B500AF2A
:100E600001224FF40051034801F044F9FFF7EAFF73
:100E700000BF80BD000C024080B500AF00224FF4DF
:100E80000051034801F036F9FFF7DCFF00BF80BDD9
:100E9000000C024080B500AF01224FF4805106489B
:100EA00001F028F900224FF48041034801F022F9B3
:100EB000FFF7C8FF00BF80BD000C024080B582B0C4
:100EC00000AF00F04DFE78600D4B1B687A68D31AB6
:100ED000B3F5FA7F07D34FF480410A4801F023F9B4
:100EE000074A7B68136000224FF48051054801F0E7
:100EF00001F9FFF7A7FF00BF0837BD4680BD00BF5F
:100F00000C020020000C024080B500AF00224FF41C
:100F10008051094801F0EEF800224FF48041064864
:100F200001F0E8F8FFF78EFF044B1B78002B01D08F
:100F3000FFF794FF00BF80BD000C024008020020B4
:100F400080B584B000AF78600023FB6018E0012218
:100F50004FF480410F4801F0CDF8FFF773FFC82030
:100F600000F00AFE00224FF480410A4801F0C2F866
:100F7000FFF768FFC82000F0FFFDFB680133FB604E
:100F8000FA687B689A42E2DB00BF00BF1037BD46BB
:100F900080BD00BF000C024080B588B006AF30486D
:100FA00002F014FFFFF74EFF2E4B2F4ADA602D4B55
:100FB00001229A602B4B2D4A5A612A4B10221A614A
:100FC000284B294A5A60274B02221A60254B284A8F
:100FD0009A61284B234A1A60274802F0F7FE2148FD
:100FE000FFF7FEFD642000F0C7FD244802F0EEFE8E
:100FF00005230593002304930023039307230293FF
:10100000012301930123009313A3D3E9002319487B
:10101000FFF767FD4FF4FA7000F0AEFD422115486E
:10102000FFF7BCFA0346FB71FB791946144802F03E
:1010300065FEFB79122B04D1124802F0C7FE012392
:1010400003E0114802F0C2FE002318460837BD46EF
:1010500080BD00BFAFF3008000A1BC3300000000E2
:10106000C44A00088400002000040240000002403E
:1010700014020020A0000020E84A0008FC4A0008F2
:10108000184B0008344B0008604B000880B582B054
:1010900000AF134802F09AFE1248FFF73FFC0A2007
:1010A00000F06AFD42F2107205210E48FFF770FC55
:1010B00078607B68012B07D10B4802F087FE0B4B51
:1010C00001221A70012307E07968094802F016FE30
:1010D000064B00221A70002318460837BD4680BD13
:1010E000804B0008A0000020984B00080902002057
:1010F000BC4B000880B582B000AF42212348FFF707
:101100004DFA0346FB71FB79122B09D0204802F0FF
:101110005DFE204B00221A70FFF7AEFE002331E087
:1011200000F01EFD38601C4B1B68002B15D01A4BBD
:101130001B683A68D31A41F2873293420DD8154B97
:101140001B78002B07D1154802F040FE114B0122FD
:101150001A70FFF783FE012314E00E4B1B78002B5F
:101160000FD00D4B1B683A68D31A41F28832934274
:1011700007D90B4802F02AFE064B00221A70FFF72F
:101180007BFE002318460837BD4680BDA000002026
:10119000DC4B00080802002004020020044C000878
:1011A000384C000880B584B000AF18213648FFF7EE
:1011B000F5F90346FB7301213348FFF7EFF90346C6
:1011C000BB73BB7B03F00703052B08D0BB7B194621
:1011D0002E4802F093FDFFF759FF002350E02A4804
:1011E000FFF73BFC03467B737B7B002B36D0402212
:1011F0000021274802F0CAFE7B7B1A462449224878
:10120000FFF79CFC0346FB71FB79214A0021D15476
:10121000204B1B6801331F4A136000F0A1FC0346FA
:101220001D4A13601B4B1968FA79194B1B4802F0D1
:1012300065FDFFF72FFE1A4B1B78002B07D1184BCB
:1012400001221A70FFF70AFE164802F0BFFD322095
:1012500000F092FCFFF71AFFFB7911E000F080FC30
:10126000B8600D4B1B68002B09D00B4B1B68BA688C
:10127000D31A41F28832934201D9FFF71FFE0023AF
:1012800018461037BD4680BDA0000020584C00080D
:10129000BC010020B801002004020020944C00088A
:1012A00008020020C04C000880B500AF114802F0D1
:1012B0008DFD114B00221A70104B00221A70FFF79F
:1012C000DBFD0F48FFF78CFCC82000F055FCFFF752
:1012D00063FE0346012B05D10A4802F077FDFFF7B4
:1012E000D5FE05E0084802F071FD0520FFF728FE55
:1012F00000BF80BDE44C0008080200200902002065
:1013000084000020044D00082C4D000880B584B0F6
:1013100000AF00F0BFFB00F0FFF8FFF7EDFC00F0BE
:1013200065F900F0B1F900F061FB5F4802F04EFD95
:101330005E4802F04BFD5E4802F048FD5B4802F05B
:1013400045FD5C495C4802F0D9FC5C4802F03EFD7A
:101350005B4802F03BFD5B4802F038FD40215A48F3
:1013600002F0CCFC514802F031FD584802F02EFD4D
:10137000574802F02BFD574802F028FD564802F06E
:1013800025FD564802F022FD484802F01FFDFFF7F8
:101390004DFDFFF757FD4FF47A7000F0EDFBFFF7BE
:1013A000FBFD0346012B07D04D4802F00FFD0A203C
:1013B000FFF7C6FDFFF778FFFFF768FE0346012B36
:1013C00005D0484802F002FD0520FFF7B9FD464868
:1013D00002F0FCFC354802F0F9FC00F0C1FB0346CA
:1013E000424A136000F0BCFB0346414A136000F020
:1013F000B7FBF8603D4B1B68FA68D31A632B11D911
:10140000FFF7D0FEB860BB68002B08DD394802F05A
:10141000DDFC4FF47A7000F0AFFBFFF775FD334A47
:10142000FB681360324B1B68FA68D31AB3F5FA6F86
:101430000DD3FFF75FFE2E4AFB6813602E4B1B781F
:10144000002B04D12D4802F0C1FCFFF737FD2C4BD7
:101450001B68FA68D31A43F6972293421FD9422198
:101460002848FFF79BF80346FB71FB79122B07D046
:10147000FB791946244802F041FCFFF715FF0BE009
:10148000224802F0A3FC224B1B78002B04D12148F8
:1014900002F09CFCFFF7FAFD194AFB6813600A2072
:1014A00000F06AFBA3E700BF504D0008544D000850
:1014B0008C4D0008B44D0008C84D0008D84D0008F8
:1014C000F04D0008104E0008244E00083C4E000865
:1014D0004C4E0008704E0008984E0008C04E0008A0
:1014E000E84E0008104F0008344F0008FC010020AF
:1014F00000020020504F000808020020884F00081A
:1015000010020020A0000020AC4F0008F04F00089F
:10151000090200200C50000880B594B000AF07F11C
:10152000200330220021184602F030FD07F10C03A1
:1015300000221A605A609A60DA601A610023BB6068
:10154000284B1B6C274A43F080531364254B1B6CBC
:1015500003F08053BB60BB6800237B60224B1B6899
:10156000214A43F4804313601F4B1B6803F48043FC
:101570007B607B6801233B624FF480337B620223F4
:10158000BB634FF48003FB6308233B644FF4A873F1
:101590007B640223BB640723FB6407F12003184626
:1015A00000F0DCFD0346002B01D000F053F80F23C0
:1015B000FB6002233B6100237B614FF4A053BB61BE
:1015C0004FF48053FB6107F10C030521184601F02D
:1015D0003DF80346002B01D000F03CF800BF503727
:1015E000BD4680BD003802400070004080B586B026
:1015F00000AF3B1D00221A605A609A60DA601A61DF
:1016000000233B60114B1B6B104A43F0080313632C
:101610000E4B1B6B03F008033B603B6800224FF44A
:1016200070410B4800F066FD4FF470437B6001236E
:10163000BB600023FB6000233B613B1D194604484F
:1016400000F0A4FB00BF1837BD4680BD0038024043
:10165000000C024080B500AF72B600BF01224FF40B
:101660007041084800F046FDFA2000F085FA00229B
:101670004FF47041034800F03DFDFA2000F07CFA81
:1016800000BFEBE7000C024080B500AF174B184AD3
:101690001A60164B4FF482725A60144B00229A6003
:1016A000124B0022DA60114B00221A610F4B00220C
:1016B0005A610E4B4FF400729A610C4B1822DA619A
:1016C0000A4B00221A62094B00225A62074B002281
:1016D0009A62064B0722DA62044801F0D7F9034602
:1016E000002B01D0FFF7B6FF00BF80BD1402002021
:1016F0000038004080B58CB000AF786007F11C0363
:1017000000221A605A609A60DA601A617B681B686E
:10171000394A93426BD10023BB61384B1B6C374A6B
:1017200043F480431364354B1B6C03F48043BB616B
:10173000BB6900237B61314B1B6B304A43F00103D3
:1017400013632E4B1B6B03F001037B617B6900234A
:101750003B612A4B1B6B294A43F002031363274B5F
:101760001B6B03F002033B613B690023FB60234BCF
:101770001B6B224A43F004031363204B1B6B03F0E3
:101780000403FB60FB680C23FB6102233B62002324
:101790007B620323BB620523FB6207F11C0319462E
:1017A000174800F0F3FA4FF48063FB6102233B62B9
:1017B00000237B620323BB620523FB6207F11C034A
:1017C0001946104800F0E2FA1023FB6101233B6246
:1017D00000237B620323BB6207F11C0319460A48FE
:1017E00000F0D4FA01221021074800F083FC00BF6A
:1017F0003037BD4680BD00BF003800400038024091
:1018000000080240000402400000024080B483B09F
:1018100000AF00237B60104B5B6C0F4A43F48043A6
:1018200053640D4B5B6C03F480437B607B68002347
:101830003B60094B1B6C084A43F080531364064B12
:101840001B6C03F080533B603B6800BF0C37BD4608
:101850005DF8047B704700BF0038024080B400AFE1
:1018600000BFFDE780B400AF00BFFDE780B400AF6C
:1018700000BFFDE780B400AF00BFFDE780B400AF5C
:1018800000BFFDE780B400AF00BFBD465DF8047B3C
:10189000704780B400AF00BFBD465DF8047B704761
:1018A00080B400AF00BFBD465DF8047B704780B5D3
:1018B00000AF00F041F900BF80BD80B586B000AF39
:1018C000F860B9607A6000237B610AE0AFF30080C2
:1018D0000146BB685A1CBA60CAB21A707B690133F0
:1018E0007B617A697B689A42F0DB7B68184618371F
:1018F000BD4680BD80B483B000AF78604FF0FF3349
:1019000018460C37BD465DF8047B704780B483B041
:1019100000AF786039603B684FF400525A60002392
:1019200018460C37BD465DF8047B704780B483B021
:1019300000AF7860012318460C37BD465DF8047B84
:10194000704780B485B000AFF860B9607A6000235A
:1019500018461437BD465DF8047B704780B586B0E5
:1019600000AF7860144A154BD31A7B617B693B61E9
:10197000134B1B68002B02D1114B124A1A60104BFB
:101980001A687B6813443A699A4207D202F04CFB0A
:1019900003460C221A604FF0FF3309E0084B1B6826
:1019A000FB60074B1A687B681344054A1360FB68A9
:1019B00018461837BD4680BD000002200004000014
:1019C0006C0200200804002080B400AF064BD3F85E
:1019D0008830054A43F47003C2F8883000BFBD4622
:1019E0005DF8047B704700BF00ED00E080B500AFFC
:1019F000114B124A1A60104B4FF4E1325A600E4BF1
:101A000000229A600C4B0022DA600B4B00221A6114
:101A1000094B0C225A61084B00229A61064B0022A6
:101A2000DA61054801F092FC0346002B01D0FFF774
:101A300011FE00BF80BD00BF7002002000440040C6
:101A4000DFF834D0FFF7C0FF0C480D490D4A0023E2
:101A500002E0D458C4500433C4188C42F9D30A4A63
:101A60000A4C002301E013600432A242FBD302F0CF
:101A7000E1FAFFF74BFC7047000002200000002055
:101A800068000020B850000868000020080400200A
:101A9000FEE7000080B500AF0E4B1B680D4A43F413
:101AA000007313600B4B1B680A4A43F48063136096
:101AB000084B1B68074A43F480731360032000F04F
:101AC00031F90F2000F008F8FFF7A0FE00231846B8
:101AD00080BD00BF003C024080B582B000AF78609E
:101AE000124B1A68124B1B7819464FF47A73B3FBEA
:101AF000F1F3B2FBF3F3184600F03BF90346002B79
:101B000001D001230EE07B680F2B0AD800227968F0
:101B10004FF0FF3000F011F9064A7B681360002394
:101B200000E0012318460837BD4680BD00000020B4
:101B3000080000200400002080B400AF064B1B7892
:101B40001A46064B1B681344044A136000BFBD4687
:101B50005DF8047B704700BF08000020B802002039
:101B600080B400AF034B1B681846BD465DF8047B8C
:101B7000704700BFB802002080B584B000AF786025
:101B8000FFF7EEFFB8607B68FB60FB68B3F1FF3FD7
:101B900005D00A4B1B781A46FB681344FB6000BF54
:101BA000FFF7DEFF0246BB68D31AFA689A42F7D8FD
:101BB00000BF00BF1037BD4680BD00BF0800002039
:101BC00080B485B000AF78607B6803F00703FB60EA
:101BD0000C4BDB68BB60BA684FF6FF031340BB6079
:101BE000FB681A02BB68134343F0BF6343F400333E
:101BF000BB60044ABB68D36000BF1437BD465DF8C4
:101C0000047B704700ED00E080B400AF044BDB685C
:101C10001B0A03F007031846BD465DF8047B7047B6
:101C200000ED00E080B483B000AF03463960FB7183
:101C300097F90730002B0ADB3B68DAB20C4997F9B9
:101C400007301201D2B20B4483F800230AE03B684C
:101C5000DAB20849FB7903F00F03043B1201D2B258
:101C60000B441A7600BF0C37BD465DF8047B704705
:101C700000E100E000ED00E080B489B000AFF86062
:101C8000B9607A60FB6803F00703FB61FB69C3F18D
:101C90000703042B28BF0423BB61FB690433062B15
:101CA00002D9FB69033B00E000237B614FF0FF3268
:101CB000BB6902FA03F3DA43BB681A407B699A40B6
:101CC0004FF0FF317B6901FA03F3D9437B680B4086
:101CD000134318462437BD465DF8047B7047000067
:101CE00080B582B000AF78607B68013BB3F1807F44
:101CF00001D301230FE00A4A7B68013B53600F21A7
:101D00004FF0FF30FFF78EFF054B00229A60044B27
:101D100007221A60002318460837BD4680BD00BF61
:101D200010E000E080B582B000AF78607868FFF71F
:101D300047FF00BF0837BD4680BD80B586B000AF05
:101D40000346B9607A60FB7300237B61FFF75CFF99
:101D500078617A68B9687869FFF78EFF024697F96B
:101D60000F3011461846FFF75DFF00BF1837BD461C
:101D700080BD80B582B000AF78607868FFF7B0FFB3
:101D8000034618460837BD4680BD000080B489B0C0
:101D900000AF7860396000237B6100233B61002342
:101DA000BB610023FB616BE10122FB6902FA03F3D3
:101DB0007B613B681B687A6913403B613A697B69C8
:101DC0009A4240F05A813B685B6803F00303012BA1
:101DD00005D03B685B6803F00303022B30D17B68BE
:101DE0009B68BB61FB695B00032202FA03F3DB43E0
:101DF000BA691340BB613B68DA68FB695B0002FAB1
:101E000003F3BA691343BB617B68BA699A607B6864
:101E10005B68BB610122FB6902FA03F3DB43BA6929
:101E20001340BB613B685B681B0903F00102FB695F
:101E300002FA03F3BA691343BB617B68BA695A605B
:101E40003B685B6803F00303032B17D07B68DB68F8
:101E5000BB61FB695B00032202FA03F3DB43BA694F
:101E60001340BB613B689A68FB695B0002FA03F3AD
:101E7000BA691343BB617B68BA69DA603B685B6827
:101E800003F00303022B23D1FB69DA087B680832D5
:101E900053F82230BB61FB6903F007039B000F225C
:101EA00002FA03F3DB43BA691340BB613B681A696A
:101EB000FB6903F007039B0002FA03F3BA691343BB
:101EC000BB61FB69DA087B680832B96943F8221004
:101ED0007B681B68BB61FB695B00032202FA03F3AA
:101EE000DB43BA691340BB613B685B6803F00302E4
:101EF000FB695B0002FA03F3BA691343BB617B68B9
:101F0000BA691A603B685B6803F44033002B00F049
:101F1000B4800023FB60604B5B6C5F4A43F48043FA
:101F200053645D4B5B6C03F48043FB60FB685B4A6E
:101F3000FB699B08023352F82330BB61FB6903F055
:101F400003039B000F2202FA03F3DB43BA69134039
:101F5000BB617B68524A93422BD07B68514A9342C3
:101F600025D07B68504A93421FD07B684F4A9342EA
:101F700019D07B684E4A934213D07B684D4A9342F6
:101F80000DD07B684C4A934207D07B684B4A934202
:101F900001D107230EE008230CE006230AE0052305
:101FA00008E0042306E0032304E0022302E0012307
:101FB00000E00023FA6902F0030292009340BA693C
:101FC0001343BB613549FB699B080233BA6941F889
:101FD00023203B4B9B68BB613B69DB43BA691340E1
:101FE000BB613B685B6803F48013002B03D0BA69C4
:101FF0003B691343BB61324ABB699360304BDB687A
:10200000BB613B69DB43BA691340BB613B685B68FA
:1020100003F40013002B03D0BA693B691343BB617F
:10202000274ABB69D360264B5B68BB613B69DB43D6
:10203000BA691340BB613B685B6803F40033002B53
:1020400003D0BA693B691343BB611D4ABB69536046
:102050001B4B1B68BB613B69DB43BA691340BB6127
:102060003B685B6803F48033002B03D0BA693B699B
:102070001343BB61124ABB691360FB690133FB6107
:10208000FB690F2B7FF690AE00BF00BF2437BD4623
:102090005DF8047B704700BF003802400038014003
:1020A000000002400004024000080240000C024010
:1020B000001002400014024000180240001C0240C0
:1020C000003C014080B485B000AF78600B467B8057
:1020D0007B681A697B881340002B02D00123FB73B5
:1020E00001E00023FB73FB7B18461437BD465DF807
:1020F000047B704780B483B000AF78600B467B8070
:1021000013467B707B78002B03D07A887B689A61BA
:1021100003E07B881A047B689A6100BF0C37BD46D8
:102120005DF8047B704780B485B000AF78600B46E3
:102130007B807B685B69FB607A88FB6813401A04CC
:10214000FB68D9437B880B401A437B689A6100BFC8
:102150001437BD465DF8047B7047000080B586B03B
:1021600000AF78607B68002B01D1012367E27B68B8
:102170001B6803F00103002B75D0884B9B6803F0AC
:102180000C03042B0CD0854B9B6803F00C03082B2D
:1021900012D1824B5B6803F48003B3F5800F0BD13F
:1021A0007E4B1B6803F40033002B5BD07B685B68BD
:1021B000002B57D1012342E27B685B68B3F5803F77
:1021C00006D1764B1B68754A43F4803313601DE0DB
:1021D0007B685B68B3F5A02F0CD1704B1B686F4A0E
:1021E00043F4802313606D4B1B686C4A43F48033C7
:1021F00013600BE0694B1B68684A23F4803313605B
:10220000664B1B68654A23F4802313607B685B6818
:10221000002B13D0FFF7A4FC386108E0FFF7A0FC07
:1022200002463B69D31A642B01D9032307E25B4BB7
:102230001B6803F40033002BF0D014E0FFF790FC90
:10224000386108E0FFF78CFC02463B69D31A642B27
:1022500001D90323F3E1514B1B6803F40033002B36
:10226000F0D100E000BF7B681B6803F00203002B85
:1022700063D04A4B9B6803F00C03002B0BD0474BF9
:102280009B6803F00C03082B1CD1444B5B6803F4E0
:102290008003002B16D1414B1B6803F00203002B77
:1022A00005D07B68DB68012B01D00123C7E13B4BE4
:1022B0001B6823F0F8027B681B69DB003749134376
:1022C0000B603AE07B68DB68002B20D0344B0122A6
:1022D0001A60FFF745FC386108E0FFF741FC024651
:1022E0003B69D31A022B01D90323A8E12B4B1B68AE
:1022F00003F00203002BF0D0284B1B6823F0F802F8
:102300007B681B69DB00254913430B6015E0244BF8
:1023100000221A60FFF724FC386108E0FFF720FC78
:1023200002463B69D31A022B01D9032387E11B4BD9
:102330001B6803F00203002BF0D17B681B6803F0DD
:102340000803002B36D07B685B69002B16D0154B39
:1023500001221A60FFF704FC386108E0FFF700FC77
:1023600002463B69D31A022B01D9032367E10B4BC9
:102370005B6F03F00203002BF0D01BE0094B00223F
:102380001A60FFF7EDFB38610EE0FFF7E9FB02464C
:102390003B69D31A022B07D9032350E100380240CE
:1023A00000004742800E4742884B5B6F03F00203F8
:1023B000002BEAD17B681B6803F00403002B00F0BC
:1023C00097800023FB75814B1B6C03F08053002B1F
:1023D0000FD10023BB607D4B1B6C7C4A43F08053C4
:1023E00013647A4B1B6C03F08053BB60BB68012302
:1023F000FB75774B1B6803F48073002B18D1744B6B
:102400001B68734A43F480731360FFF7A9FB3861BC
:1024100008E0FFF7A5FB02463B69D31A022B01D95E
:1024200003230CE16A4B1B6803F48073002BF0D08C
:102430007B689B68012B06D1644B1B6F634A43F09A
:10244000010313671CE07B689B68052B0CD15F4B75
:102450001B6F5E4A43F0040313675C4B1B6F5B4AC0
:1024600043F0010313670BE0584B1B6F574A23F0EF
:1024700001031367554B1B6F544A23F00403136782
:102480007B689B68002B15D0FFF76AFB38610AE078
:10249000FFF766FB02463B69D31A41F2883293424A
:1024A00001D90323CBE0494B1B6F03F00203002B40
:1024B000EED014E0FFF754FB38610AE0FFF750FB61
:1024C00002463B69D31A41F28832934201D9032371
:1024D000B5E03E4B1B6F03F00203002BEED1FB7DFA
:1024E000012B05D1394B1B6C384A23F08053136400
:1024F0007B689B69002B00F0A180344B9B6803F044
:102500000C03082B5CD07B689B69022B41D1314BBB
:1025100000221A60FFF724FB386108E0FFF720FB78
:1025200002463B69D31A022B01D9032387E0274BCC
:102530001B6803F00073002BF0D17B68DA697B68BD
:102540001B6A1A437B685B6A9B011A437B689B6A20
:102550005B08013B1B041A437B68DB6A1B061B49B3
:1025600013434B601B4B01221A60FFF7F9FA3861E5
:1025700008E0FFF7F5FA02463B69D31A022B01D9AE
:1025800003235CE0114B1B6803F00073002BF0D0B9
:1025900054E0104B00221A60FFF7E2FA386108E0BD
:1025A000FFF7DEFA02463B69D31A022B01D9032357
:1025B00045E0064B1B6803F00073002BF0D13DE0B3
:1025C0007B689B69012B07D1012338E0003802406A
:1025D00000700040600047421B4B5B68FB607B68FB
:1025E0009B69012B28D0FB6803F480027B68DB69C0
:1025F0009A4221D1FB6803F03F027B681B6A9A4232
:102600001AD1FA6847F6C07313407A68526A920189
:10261000934211D1FB6803F440327B689B6A5B08EC
:10262000013B1B049A4207D1FB6803F070627B6890
:10263000DB6A1B069A4201D0012300E00023184602
:102640001837BD4680BD00BF0038024080B584B059
:1026500000AF786039607B68002B01D10123CCE0AA
:10266000684B1B6803F007033A689A420CD9654B24
:102670003A68D2B21A70634B1B6803F007033A68DA
:102680009A4201D00123B8E07B681B6803F0020383
:10269000002B20D07B681B6803F00403002B05D0BF
:1026A000594B9B68584A43F4E05393607B681B681E
:1026B00003F00803002B05D0534B9B68524A43F4A8
:1026C00060439360504B9B6823F0F0027B689B68EB
:1026D0004D4913438B607B681B6803F00103002B9B
:1026E00044D07B685B68012B07D1474B1B6803F420
:1026F0000033002B19D101237FE07B685B68022B3C
:1027000003D07B685B68032B07D13F4B1B6803F04A
:102710000073002B09D101236FE03B4B1B6803F0D2
:102720000203002B01D1012367E0374B9B6823F0A4
:1027300003027B685B68344913438B60FFF710FA30
:10274000F8600AE0FFF70CFA0246FB68D31A41F280
:102750008832934201D903234FE02B4B9B6803F04F
:102760000C027B685B689B009A42EBD1254B1B688F
:1027700003F007033A689A420CD2224B3A68D2B26D
:102780001A70204B1B6803F007033A689A4201D085
:10279000012332E07B681B6803F00403002B08D0A0
:1027A000194B9B6823F4E0527B68DB68164913439E
:1027B0008B607B681B6803F00803002B09D0124B69
:1027C0009B6823F460427B681B69DB000E4913435E
:1027D0008B6000F021F802460B4B9B681B0903F04D
:1027E0000F030A49CB5C22FA03F3094A1360094B31
:1027F0001B681846FFF770F9002318461037BD46CE
:1028000080BD00BF003C0240003802405C50000820
:1028100000000020040000202DE9B04F94B000AF6C
:1028200000237B640023FB6400233B640023BB6420
:10283000794B9B6803F00C03082B0DD0082B00F29A
:10284000E180002B02D0042B03D0DBE0734BBB6490
:10285000DBE0734BBB64D8E06F4B5B6803F03F0376
:102860007B646D4B5B6803F48003002B63D06A4B81
:102870005B689B090022BB63FA63BB6BC3F308036D
:102880003B6300237B63D7E90C4522462B464FF080
:1028900000004FF00001590141EAD26150010246A7
:1028A0000B462146511A3961294663EB01037B61CE
:1028B0004FF000024FF00003D7E904AB59468B01FB
:1028C000514643EA916351468A015146B2EB0108F1
:1028D000594663EB01094FF000024FF000034FEA45
:1028E000C90343EA58734FEAC80290469946234603
:1028F00018EB0303BB602B4649EB0303FB604FF06F
:1029000000024FF00003D7E9024529464B02214659
:1029100043EAD15321464A02104619467B6C0022F5
:10292000BB62FA62D7E90A23FDF7A2FC02460B4616
:102930001346FB6458E0384B5B689B09002218463D
:102940001146C0F308033B6200237B62D7E9088984
:1029500042464B464FF000004FF00001590141EA5A
:10296000D261500102460B464146B2EB010A49468C
:1029700063EB010B4FF000024FF000034FEA8B13A3
:1029800043EA9A634FEA8A12B2EB0A0463EB0B053F
:102990004FF000024FF00003EB0043EA5473E200F3
:1029A00014461D464346E3183B604B4645EB030384
:1029B0007B604FF000024FF00003D7E90045294645
:1029C0008B02214643EA915321468A02104619465A
:1029D0007B6C0022BB61FA61D7E90623FDF748FC56
:1029E00002460B461346FB640B4B5B681B0C03F063
:1029F000030301335B003B64FA6C3B6CB2FBF3F303
:102A0000BB6402E0054BBB6400BFBB6C184650378B
:102A1000BD46BDE8B08F00BF003802400024F4007E
:102A200000127A0080B400AF034B1B681846BD4605
:102A30005DF8047B704700BF0000002080B500AF48
:102A4000FFF7F0FF0246054B9B689B0A03F0070364
:102A50000349CB5C22FA03F3184680BD00380240DC
:102A60006C50000880B500AFFFF7DCFF0246054B55
:102A70009B685B0B03F007030349CB5C22FA03F36B
:102A8000184680BD003802406C50000880B582B006
:102A900000AF78607B68002B01D101237BE07B686D
:102AA0005B6A002B08D17B685B68B3F5827F09D035
:102AB0007B680022DA6105E07B6800221A617B688E
:102AC00000225A617B6800229A627B6893F8513039
:102AD000DBB2002B06D17B68002283F85020786897
:102AE000FEF708FE7B68022283F851207B681B6892
:102AF0001A687B681B6822F040021A607B685B687A
:102B000003F482727B689B6803F404431A437B6876
:102B1000DB6803F400631A437B681B6903F002035C
:102B20001A437B685B6903F001031A437B689B6966
:102B300003F400731A437B68DB6903F038031A431C
:102B40007B681B6A03F0800342EA03017B689B6A8F
:102B500003F400527B681B680A431A607B689B6918
:102B60001B0C03F004017B685B6A03F010027B68B6
:102B70001B680A435A607B681B68DA697B681B68BC
:102B800022F40062DA617B6800225A657B680122C8
:102B900083F85120002318460837BD4680BD80B514
:102BA00088B000AFF860B9603B601346FB80FEF769
:102BB000D7FFF861FB887B83FB6893F85130DBB269
:102BC000012B01D002232AE1BB68002B02D0FB8835
:102BD000002B01D1012322E1FB6893F85030012B37
:102BE00001D102231BE1FB68012283F85020FB681E
:102BF000032283F85120FB6800225A65FB68BA68FB
:102C00001A63FB68FA889A86FB68FA88DA86FB689A
:102C100000229A63FB6800229A87FB680022DA8709
:102C2000FB6800225A64FB6800221A64FB689B68F8
:102C3000B3F5004F0FD1FB681B681A68FB681B686F
:102C400022F040021A60FB681B681A68FB681B6868
:102C500042F480421A60FB681B681B6803F0400363
:102C6000402B07D0FB681B681A68FB681B6842F0A2
:102C700040021A60FB68DB68B3F5006F52D1FB6855
:102C80005B68002B02D07B8B012B45D1FB681B6B53
:102C90001A88FB681B68DA60FB681B6B9A1CFB6870
:102CA0001A63FB68DB8E9BB2013B9AB2FB68DA8643
:102CB00032E0FB681B689B6803F00203022B12D111
:102CC000FB681B6B1A88FB681B68DA60FB681B6B70
:102CD0009A1CFB681A63FB68DB8E9BB2013B9AB2BD
:102CE000FB68DA8618E0FEF73BFF0246FB69D31A61
:102CF0003A689A4203D83B68B3F1FF3F02D13B6880
:102D0000002B09D1FB68012283F85120FB680022C7
:102D100083F85020032382E0FB68DB8E9BB2002BFC
:102D2000C7D153E0FB685B68002B02D07B8B012B83
:102D300047D1FB681A6BFB681B680C3312781A705A
:102D4000FB681B6B5A1CFB681A63FB68DB8E9BB22B
:102D5000013B9AB2FB68DA8633E0FB681B689B682C
:102D600003F00203022B13D1FB681A6BFB681B688C
:102D70000C3312781A70FB681B6B5A1CFB681A63C1
:102D8000FB68DB8E9BB2013B9AB2FB68DA8618E0E7
:102D9000FEF7E6FE0246FB69D31A3A689A4203D868
:102DA0003B68B3F1FF3F02D13B68002B09D1FB68C0
:102DB000012283F85120FB68002283F8502003236E
:102DC0002DE0FB68DB8E9BB2002BC6D1FA69396817
:102DD000F86800F067FA0346002B02D0FB68202257
:102DE0005A65FB689B68002B0AD100237B61FB6856
:102DF0001B68DB687B61FB681B689B687B617B6988
:102E0000FB68012283F85120FB68002283F85020E0
:102E1000FB685B6D002B01D0012300E00023184606
:102E20002037BD4680BD80B58AB000AFF860B9607C
:102E30007A607B8001237B62FEF792FE3862FB683A
:102E400093F85130FB77FB685B68BB617B88FB8242
:102E5000FB7F012B0CD0BB69B3F5827F06D1FB68E9
:102E60009B68002B02D1FB7F042B01D002237FE162
:102E7000BB68002B05D07B68002B02D07B88002B21
:102E800001D1012374E1FB6893F85030012B01D18B
:102E900002236DE1FB68012283F85020FB6893F860
:102EA0005130DBB2042B03D0FB68052283F851209C
:102EB000FB6800225A65FB687A689A63FB687A8827
:102EC000DA87FB687A889A87FB68BA681A63FB68B6
:102ED0007A88DA86FB687A889A86FB6800221A6408
:102EE000FB6800225A64FB681B681B6803F0400300
:102EF000402B07D0FB681B681A68FB681B6842F010
:102F000040021A60FB68DB68B3F5006F7ED1FB6896
:102F10005B68002B02D0FB8A012B6CD1FB681B6B1A
:102F20001A88FB681B68DA60FB681B6B9A1CFB68DD
:102F30001A63FB68DB8E9BB2013B9AB2FB68DA86B0
:102F400059E0FB681B689B6803F00203022B1BD14E
:102F5000FB68DB8E9BB2002B16D07B6A012B13D152
:102F6000FB681B6B1A88FB681B68DA60FB681B6BCD
:102F70009A1CFB681A63FB68DB8E9BB2013B9AB21A
:102F8000FB68DA8600237B62FB681B689B6803F0A2
:102F90000103012B19D1FB68DB8F9BB2002B14D0EE
:102FA000FB681B68DA68FB689B6B92B21A80FB684F
:102FB0009B6B9A1CFB689A63FB68DB8F9BB2013B9F
:102FC0009AB2FB68DA8701237B62FEF7C9FD0246ED
:102FD0003B6AD31A3A6B9A420DD83B6BB3F1FF3F71
:102FE00009D0FB68012283F85120FB68002283F896
:102FF00050200323BCE0FB68DB8E9BB2002BA0D1EA
:10300000FB68DB8F9BB2002B9BD182E0FB685B6887
:10301000002B02D0FB8A012B71D1FB681A6BFB6875
:103020001B680C3312781A70FB681B6B5A1CFB6808
:103030001A63FB68DB8E9BB2013B9AB2FB68DA86AF
:103040005DE0FB681B689B6803F00203022B1CD148
:10305000FB68DB8E9BB2002B17D07B6A012B14D14F
:10306000FB681A6BFB681B680C3312781A70FB68DC
:103070001B6B5A1CFB681A63FB68DB8E9BB2013B1F
:103080009AB2FB68DA8600237B62FB681B689B6848
:1030900003F00103012B19D1FB68DB8F9BB2002BDE
:1030A00014D0FB681B68DA68FB689B6BD2B21A709D
:1030B000FB689B6B5A1CFB689A63FB68DB8F9BB2B7
:1030C000013B9AB2FB68DA8701237B62FEF748FD79
:1030D00002463B6AD31A3A6B9A4203D83B6BB3F170
:1030E000FF3F02D13B6B002B09D1FB68012283F823
:1030F0005120FB68002283F85020032338E0FB684E
:10310000DB8E9BB2002B9CD1FB68DB8F9BB2002B2C
:1031100097D13A6A396BF86800F0C4F80346002B7F
:1031200008D0FB6820225A65FB68002283F85020F3
:1031300001231DE0FB689B68002B0AD100233B6143
:10314000FB681B68DB683B61FB681B689B683B6135
:103150003B69FB68012283F85120FB68002283F859
:103160005020FB685B6D002B01D0012300E00023A1
:1031700018462837BD4680BD80B483B000AF786064
:103180007B6893F85130DBB218460C37BD465DF8CA
:10319000047B704780B588B000AFF860B9603B60D1
:1031A0001346FB71FEF7DCFC0246BB6A9B1A3A68C9
:1031B0001344FB61FEF7D4FCB861394B1B685B011B
:1031C0001B0DFA6902FB03F37B6155E03B68B3F129
:1031D000FF3F51D0FEF7C4FC0246BB69D31AFA691F
:1031E0009A4202D9FB69002B3DD1FB681B685A68E3
:1031F000FB681B6822F0E0025A60FB685B68B3F56D
:10320000827F11D1FB689B68B3F5004F04D0FB6847
:103210009B68B3F5806F07D1FB681B681A68FB6871
:103220001B6822F040021A60FB689B6AB3F5005FDE
:103230000FD1FB681B681A68FB681B6822F40052F8
:103240001A60FB681B681A68FB681B6842F400522E
:103250001A60FB68012283F85120FB68002283F882
:103260005020032318E07B69002B02D10023FB616F
:1032700002E07B69013B7B61FB681B689A68BB6865
:103280001340BA689A420CBF01230023DBB21A46EE
:10329000FB799A429AD1002318462037BD4680BD5B
:1032A0000000002080B588B002AFF860B9607A6095
:1032B0007B680093BB6801220221F868FFF76AFF70
:1032C0000346002B07D0FB685B6D43F02002FB68D0
:1032D0005A65032332E01B4B1B681B4AA2FB0323E6
:1032E0005B0D4FF47A7202FB03F37B61FB685B6852
:1032F000B3F5827F12D17B680093BB6800228021E6
:10330000F868FFF747FF0346002B16D0FB685B6D9C
:1033100043F02002FB685A6503230FE07B69002B12
:103320000AD07B69013B7B61FB681B689B6803F0EB
:103330008003802BF2D000E000BF0023184618372E
:10334000BD4680BD00000020819F5E1680B582B022
:1033500000AF78607B68002B01D1012342E07B68DD
:1033600093F84130DBB2002B06D17B68002283F852
:103370004020786800F03AF87B68242283F84120E6
:103380007B681B68DA687B681B6822F40052DA608D
:10339000786800F07DF97B681B681A697B681B6898
:1033A00022F490421A617B681B685A697B681B682B
:1033B00022F02A025A617B681B68DA687B681B6806
:1033C00042F40052DA607B6800225A647B68202253
:1033D00083F841207B68202283F842207B6800220A
:1033E0005A63002318460837BD4680BD80B483B0B9
:1033F00000AF786000BF0C37BD465DF8047B7047B6
:1034000080B58AB002AFF860B9603B601346FB80BC
:1034100000237B61FB6893F84130DBB2202B75D130
:10342000BB68002B02D0FB88002B01D101236EE08A
:10343000FB6800225A64FB68212283F84120FEF7D2
:103440008FFB7861FB68FA889A84FB68FA88DA84D3
:10345000FB689B68B3F5805F08D1FB681B69002B94
:1034600004D10023FB61BB68BB6103E0BB68FB6167
:103470000023BB612EE03B6800937B690022802122
:10348000F86800F048F80346002B05D0FB682022BE
:1034900083F8412003233AE0FB69002B0BD1BB6981
:1034A0001B881A46FB681B68C2F308025A60BB6996
:1034B0000233BB6107E0FB691A78FB681B685A603E
:1034C000FB690133FB61FB68DB8C9BB2013B9AB269
:1034D000FB68DA84FB68DB8C9BB2002BCBD13B68AA
:1034E00000937B6900224021F86800F014F803463D
:1034F000002B05D0FB68202283F84120032306E03F
:10350000FB68202283F84120002300E002231846B4
:103510002037BD4680BD80B586B000AFF860B96089
:103520003B601346FB713BE03B6AB3F1FF3F37D092
:10353000FEF716FB02463B68D31A3A6A9A4202D358
:103540003B6A002B01D103233AE0FB681B68DB6870
:1035500003F00403002B23D0BB68802B20D0BB6872
:10356000402B1DD0FB681B681B6803F00803082B69
:1035700016D100237B61FB681B681B687B61FB68BD
:103580001B685B687B617B69F86800F01DF8FB686D
:1035900008225A64FB68002283F8402001230FE0D0
:1035A000FB681B681A68BB681340BA689A420CBF74
:1035B00001230023DBB21A46FB799A42B4D00023E0
:1035C00018461837BD4680BD80B495B000AF78600E
:1035D0007B681B680C337B637B6B53E8003F3B636A
:1035E0003B6B23F49073FB647B681B680C33FA6CB1
:1035F0003A64FB63F96B3A6C41E80023BB63BB6B35
:10360000002BE5D17B681B6814333B623B6A53E8AF
:10361000003FFB61FB6923F00103BB647B681B680F
:103620001433BA6CFA62BB62B96AFA6A41E80023E1
:103630007B627B6A002BE5D17B681B6B012B19D168
:103640007B681B680C33FB60FB6853E8003FBB6082
:10365000BB6823F010037B647B681B680C337A6CB7
:10366000BA617B617969BA6941E800233B613B69D2
:10367000002BE5D17B68202283F842207B68002262
:103680001A6300BF5437BD465DF8047B70470000E5
:103690002DE9B04FC0B000AFC7F8F400D7F8F43050
:1036A0001B681B6923F44050D7F8F430D968D7F869
:1036B000F4301A6840EA01031361D7F8F4309A68CD
:1036C000D7F8F4301B691A43D7F8F4305B691A4312
:1036D000D7F8F430DB691343C7F8F830D7F8F43083
:1036E0001B68DB6823F4164121F00C01D7F8F43095
:1036F0001A68D7F8F8300B43D360D7F8F4301B685A
:103700005B6923F44070D7F8F4309969D7F8F43046
:103710001A6840EA01035361D7F8F4301A688F4BF6
:103720009A4205D0D7F8F4301A688D4B9A4204D1EA
:10373000FFF798F9C7F8FC0003E0FFF77FF9C7F837
:10374000FC00D7F8F430DB69B3F5004F40F00C8192
:10375000D7F8FC300022C7F8E830C7F8EC20D7E9EA
:103760003A4522462B469118B9655B41FB65D7E97E
:103770001623214612EB0108294643EB01094FF0BD
:1037800000024FF000034FEAC90343EA58734FEABF
:10379000C80290469946234618EB0303C7F8E03069
:1037A0002B4649EB0303C7F8E430D7F8F4305B68E5
:1037B0000022C7F8D830C7F8DC20D7E936120B460C
:1037C000DB183B65134642EB03037B65D7E9142303
:1037D000D7E93801FCF74CFD02460B46614BA3FBD1
:1037E00002235B091C01D7F8FC300022C7F8D03057
:1037F000C7F8D420D7E9348942464B469118B964BA
:103800005B41FB64D7E91223414612EB010A4946AA
:1038100043EB010B4FF000024FF000034FEACB03E4
:1038200043EA5A734FEACA0292469B4643461AEB52
:103830000303C7F8C8304B464BEB0303C7F8CC3043
:10384000D7F8F4305B680022C7F8C030C7F8C4204E
:10385000D7E930120B46DB183B64134642EB0303F7
:103860007B64D7E91023D7E93201FCF701FD02465A
:103870000B4611463B4BA3FB01235B09642202FB71
:1038800003F3CB1ADB0003F13202364BA3FB022316
:103890005B095B0003F4F8731C44D7F8FC3000228A
:1038A000C7F8B830C7F8BC20D7E92E8942464B4646
:1038B0009118B9635B41FB63D7E90E234146511868
:1038C000396349464B417B634FF000024FF00003E0
:1038D000D7E90CAB5946CB00514643EA51735146E8
:1038E000CA0010461946034642469B18C7F8B03036
:1038F0004B460A4642EB0303C7F8B430D7F8F4301E
:103900005B680022C7F8A830C7F8AC20D7E92A12B4
:103910000B46DB18BB62134642EB0303FB62D7E99D
:103920000A23D7E92C01FCF7A3FC02460B460D4BFA
:10393000A3FB02135B09642101FB03F3D31ADB0031
:103940003233084AA2FB03235B0903F00702D7F8CE
:10395000F4301B6822449A6006E100BF0010014069
:10396000001401401F85EB51D7F8FC300022C7F846
:10397000A030C7F8A420D7E9288942464B469118C1
:1039800039625B417B62D7E90823414654184946B6
:1039900043EB01054FF000024FF00003EB0043EA58
:1039A0005473E20014461D464346E318C7F89830A6
:1039B0004B4645EB0303C7F89C30D7F8F4305B68FF
:1039C0000022C7F89030C7F894204FF000024FF063
:1039D0000003D7E9244529468B00214643EA917329
:1039E00021468A00D7E92601FCF742FC02460B4635
:1039F000604BA3FB02235B091C01D7F8FC300022BB
:103A0000C7F88830C7F88C20D7E9228942464B4650
:103A10009118B9615B41FB61D7E906234146511812
:103A2000396149464B417B614FF000024FF0000382
:103A3000D7E904AB5946CB00514643EA517351468E
:103A4000CA0010461946034642469B18C7F8803004
:103A50004B460A4642EB0303C7F88430D7F8F430EC
:103A60005B680022BB67FA674FF000024FF000036B
:103A7000D7E91E8949468B00414643EA9173414686
:103A80008A00D7E92001FCF7F3FB02460B461146FA
:103A9000384BA3FB01235B09642202FB03F3CB1A1F
:103AA0001B013233334AA2FB03235B0903F0F0030B
:103AB0001C44D7F8FC3000223B677A67D7E91C89A1
:103AC00042464B469118B9605B41FB60D7E902233F
:103AD00041465118396049464B417B604FF0000226
:103AE0004FF00003D7E900AB5946CB00514643EAFB
:103AF00051735146CA0010461946034642469B1868
:103B0000BB664B460A4642EB0303FB66D7F8F4302C
:103B10005B6800223B667A664FF000024FF00003BC
:103B2000D7E9188949468B00414643EA91734146DB
:103B30008A00D7E91A01FCF79BFB02460B460D4BA6
:103B4000A3FB02135B09642101FB03F3D31A1B01DE
:103B50003233084AA2FB03235B0903F00F02D7F8B4
:103B6000F4301B6822449A6000BF07F58077BD4699
:103B7000BDE8B08F1F85EB51002310B50446C0E9A6
:103B80000033C0E90433836081814366C28183616D
:103B9000194608225C3000F0F9F90D4B63620D4BB9
:103BA000A3620D4BE3620D4B23630D4B24629C42D9
:103BB00006D003F16802944202D0D0339C4205D172
:103BC00004F15800BDE8104000F058BA10BD00BF25
:103BD000DD3D0008FF3D0008373E00085B3E000861
:103BE000BC020020024A0349034800F069B800BF44
:103BF0000C000020354900081C00002041680C4BD7
:103C0000994210B5044601D000F094FEA168094B1A
:103C1000994202D0204600F08DFEE168064B9942A1
:103C200004D02046BDE8104000F084BE10BD00BFA7
:103C3000BC020020240300208C03002010B50B4B95
:103C40000B4C0C4A1A60204600220421FFF794FF17
:103C500004F1680001220921FFF78EFF04F1D00072
:103C60000222BDE810401221FFF786BFF4030020B6
:103C7000BC020020E53B0008014800F000BA00BF8C
:103C8000FD030020014800F0FBB900BFFD03002048
:103C900010B50446FFF7F0FF236A1BB1BDE81040E2
:103CA000FFF7F0BF044B2362044B1B68002BF5D1D8
:103CB000FFF7C4FFF2E700BFFD3B0008F40300205C
:103CC0002DE9F8430746884614460026D4E90195B5
:103CD000B9F1010905D52468002CF7D13046BDE8BB
:103CE000F883AB89012B07D9B5F90E30013303D026
:103CF00029463846C04706436835E9E70FB407B59B
:103D0000064904AB086853F8042B8168019300F05E
:103D1000E9FA03B05DF804EB04B070471800002026
:103D2000036A70B5846805460E460BB9FFF7B0FF0D
:103D3000636EDB0705D4A389980502D4A06D00F05B
:103D40009EF9A389190702D52369002B35D1214695
:103D5000284600F0C5F880B34FF0FF35636EDA07F0
:103D600005D4A3899B0502D4A06D00F089F92846EB
:103D700070BD002B04DAA2699A4217DC0A2915D01B
:103D800023685A1C22601970A36816F8011F013BB2
:103D9000A3600029EDD1002B11DA22460A21284622
:103DA00000F05FF80130D7D00A25D7E72246284631
:103DB00000F057F80130E7D1CEE7013EE4E7236891
:103DC0005A1C22600A221A70EEE70000024B0146DC
:103DD0001868FFF7A5BF00BF1800002010B50C46FB
:103DE000B1F90E1000F0FCF80028ABBF636DA38999
:103DF0001B1823F48053ACBF6365A38110BD2DE96C
:103E0000F0411F468B89DB0505460C46164605D555
:103E1000B1F90E100223002200F0D0F8A389B4F902
:103E20000E1023F48053A38132463B462846BDE85A
:103E3000F04100F0E7B810B50C46B1F90E1000F0F3
:103E4000BDF8431CA38915BF606523F4805343F478
:103E50008053A38118BFA38110BDB1F90E1000F0EB
:103E60009DB8F8B50E461446054618B1036A0BB95D
:103E7000FFF70EFFA369A360A3891A0701D5236981
:103E800043B92146284600F02BF818B14FF0FF3710
:103E90003846F8BD23682269981A6369F6B28342EE
:103EA000374605DC2146284600F044FD0028EDD1C8
:103EB000A368013BA36023685A1C22601E706269DC
:103EC000431C9A4204D0A389DB07E1D50A2EDFD137
:103ED0002146284600F02EFD0028D9D0D6E7000064
:103EE00038B5294B054618680C4618B1036A0BB95A
:103EF000FFF7CEFEB4F90C30190722D4DA0607D446
:103F000009222A6043F04003A3814FF0FF3033E0E1
:103F1000580712D5616B41B104F14403994202D0B4
:103F2000284600F0BDF800236363A38923F024032F
:103F3000A3810023636023692360A38943F00803FE
:103F4000A38123694BB9A38903F42073B3F5007FE0
:103F500003D02146284600F03BFDB4F90C3013F0A5
:103F600001020AD00022A26062695242A261226963
:103F700042B913F08000C5D138BD990758BF6269B6
:103F8000A260F4E70020F7E718000020024403468F
:103F9000934200D1704703F8011BF9E738B5064D8D
:103FA0000023044608462B60FDF7A4FC431C02D105
:103FB0002B6803B1236038BDF803002038B5074DE6
:103FC00004460846114600222A601A46FDF7B9FC4D
:103FD000431C02D12B6803B1236038BDF8030020D5
:103FE00038B5074D04460846114600222A601A4695
:103FF000FDF763FC431C02D12B6803B1236038BD7D
:10400000F803002038B5074D044608461146002243
:104010002A601A46FCF7F6FE431C02D12B6803B156
:10402000236038BDF8030020014B1868704700BFBB
:104030001800002070B50D4D0D4C641BA410002617
:10404000A64209D10B4D0C4C00F030FD641BA410AE
:104050000026A64205D170BD55F8043B98470136AD
:10406000EEE755F8043B98470136F2E7B0500008F8
:10407000B0500008B0500008B450000870477047B6
:1040800070470A44914200F1FF3300D1704710B5E8
:1040900011F8014B03F8014F9142F9D110BD000016
:1040A00038B50546002941D051F8043C0C1F002BBF
:1040B000B8BFE41800F0E0F81D4A136833B9636034
:1040C00014602846BDE8384000F0DCB8A34208D9A7
:1040D000206821188B4201BF19685B6809182160AC
:1040E000EDE71A465B680BB1A342FAD91168501884
:1040F000A0420BD120680144501883421160E0D1E6
:1041000018685B68536008441060DAE702D90C2332
:104110002B60D6E7206821188B4204BF19685B68C2
:10412000636004BF091821605460CAE738BD00BF4E
:104130000404002070B50F4E0C463168054611B9D5
:1041400000F0A4FC30602146284600F09FFC431C90
:1041500003D14FF0FF34204670BDC41C24F003048B
:10416000A042F8D0211A284600F090FC0130F2D18C
:10417000EFE700BF000400202DE9F843CD1C25F037
:10418000030508350C2D38BF0C25002D064601DB34
:10419000A94204D90C2333600020BDE8F883DFF87E
:1041A000D48000F069F8D8F800301C4644BB29469A
:1041B0003046FFF7BFFF431C044658D1D8F80040F3
:1041C0002746002F43D1002C4BD023683946304678
:1041D00004EB030900F05AFC814542D121686D1AB5
:1041E00029463046FFF7A6FF01303AD023682B441A
:1041F0002360D8F800305A6862BBC8F800700FE03E
:104200002268521B20D40B2A17D96119A3422560BA
:1042100018BF5960636808BFC8F8001062514B604E
:10422000304600F02FF804F10B00231D20F00700AA
:10423000C21A1CBF1B1AA350AFE76268A3420CBF8F
:10424000C8F800205A60EBE723466468AEE73C46B6
:104250007F68B6E71A465B68A342FBD10023536030
:10426000DEE70C233360304600F00CF894E705607D
:10427000D6E700BF040400200148FFF700BF00BFDD
:10428000FC0300200148FFF7FBBE00BFFC03002039
:104290009368013B002B10B4936008DA9469A34241
:1042A00001DB0A2903D15DF8044BFFF7DABD13687F
:1042B000581C1060197008465DF8044B7047F8B53B
:1042C00006460F461446D518AC4201D1002007E03F
:1042D00014F8011B3A463046FFF7DAFF431CF3D1CE
:1042E000F8BD00002DE9F04F0D469DB014469846EC
:1042F000064618B1036A0BB9FFF7CAFC6B6ED90703
:1043000005D4AB899A0502D4A86DFFF7B8FEAB8936
:104310001B0701D52B699BB929463046FFF7E0FD05
:1043200070B16B6EDC0704D54FF0FF301DB0BDE8F7
:10433000F08FAB899805F7D4A86DFFF7A1FEF3E7DE
:104340000023099320238DF82930CDF80C803023E9
:10435000DFF8AC818DF82A304FF0010923469A46E8
:1043600013F8012B0AB1252AF9D1BAEB040B0BD0B3
:104370005B46224629463046FFF7A1FF013000F098
:10438000A780099A5A4409929AF80030002B00F04D
:104390009F8000234FF0FF32CDE905230AF1010A87
:1043A000049307938DF853301A935446052214F85A
:1043B000011B5348FBF70CFF049AD8B9D10644BF40
:1043C00020238DF85330130744BF2B238DF853302F
:1043D0009AF800302A2B15D0079A544600204FF047
:1043E0000A0C214611F8013B303B092B4BD9B0B1E7
:1043F000079214E0A0EB080309FA03F313430493B4
:10440000A246D2E7039B191D1B680391002BBBBF7B
:104410005B4242F0020207930793B8BF04922378ED
:104420002E2B0AD163782A2B32D1039B1A1D1B68CD
:10443000039243EAE37302340593DFF8D4A02178B2
:1044400003225046FBF7C4FE38B1049BA0EB0A00E0
:104450004022824013430134049314F8011B29487D
:104460008DF828100622FBF7B3FE00283FD0264B1C
:104470001BBB039B073323F0070308330393099BFC
:104480003B4409936AE70CFB02320C460120A8E783
:1044900000230134059319464FF00A0C204610F80A
:1044A000012B303A092A03D9002BC6D00591C4E765
:1044B0000CFB012104460123F0E703AB00932A46DD
:1044C000124B04A93046AFF300800746781CD6D1C2
:1044D0006B6ED90705D4AB899A0502D4A86DFFF796
:1044E000CFFDAB895B063FF51FAF09981EE703AB15
:1044F00000932A46054B04A9304600F079F8E4E71A
:10450000745000087E50000800000000BF42000800
:104510007A5000082DE9F047164698468A680B69DC
:10452000DDF820909342B8BF1346336091F84320E2
:1045300007460C460AB1013333602368990642BF2F
:10454000336802333360256815F0060506D104F19F
:10455000190AE36832689B1AAB4226DC94F84330B0
:104560002268003B18BF012392062BD404F14302BA
:1045700041463846C84701301ED02368226903F0FF
:104580000603042B02BFE5683368ED1AA3680CBF6D
:1045900025EAE57500259342C4BF9B1AED18002655
:1045A0001A34B5421AD1002008E001235246414690
:1045B0003846C847013003D14FF0FF30BDE8F087DF
:1045C0000135C6E7E1185A1C302081F84300224427
:1045D00094F8451082F843100233C7E701232246BE
:1045E00041463846C8470130E6D00136D9E70000D9
:1045F0002DE9FF470F7E0C9E782F914680460C4692
:104600009A4601F1430207D8622F0AD8002F00F022
:10461000D180582F00F0B88004F1420684F842702F
:104620003AE0A7F16303152BF6D801A151F823F066
:10463000894600089D4600081946000819460008EA
:1046400019460008194600089D460008194600084A
:104650001946000819460008194600089B4700083B
:10466000C7460008554700081946000819460008C3
:10467000BD47000819460008C7460008194600084B
:10468000194600085D47000833681A1D1B68326030
:1046900004F1420684F8423001239CE0336820682C
:1046A000191D3160060601D51D6803E04506FBD5DE
:1046B000B3F90050002D03DA2D236D4284F8433006
:1046C00058480A2311E021683368080653F8045B50
:1046D00002D4490648BFADB26F2F5248336014BFB1
:1046E0000A230823002184F843106668A660002E80
:1046F00005DB21682E4321F0040121604BD01646D2
:10470000B5FBF3F103FB1157C75D06F8017D2F469A
:10471000BB420D46F4D9082B0BD12368DF0708D51F
:10472000236961689942DEBF302306F8013C06F137
:10473000FF36921B2261CDF800A04B4603AA21460A
:104740004046FFF7E7FE01304AD14FF0FF3004B09A
:10475000BDE8F087236843F02003236032487827C0
:1047600084F84570236831681F0651F8045B02D451
:104770005F0648BFADB23160D90744BF43F02003A4
:1047800023601DB11023ADE72648E9E7236823F035
:1047900020032360F6E71646BDE7336825686169A4
:1047A000181D30602E061B6801D5196002E06806EE
:1047B000FBD51980002323611646BCE733681A1D18
:1047C00032601E68626800213046FBF701FD08B1C7
:1047D000801B606063682361002384F84330AAE78C
:1047E0002369324649464046D0470130ADD0236860
:1047F0009B0713D4E068039B9842B8BF1846A6E70E
:104800000123324649464046D04701309DD001350C
:10481000E36803995B1AAB42F2DCEBE7002504F195
:104820001906F5E78550000896500008B1F90C20EC
:104830002DE9F041160705460C4654D44B68002B71
:1048400002DC0B6C002B48DDE66A002E45D000230D
:1048500012F480522F68216A2B6030D0626DA389D8
:10486000590705D56368D21A636B0BB1236CD21A52
:104870000023E66A216A2846B047431CA38906D173
:1048800029681D292BD82A4ACA40D60727D50022D5
:104890006260D9042269226004D5421C01D12B68D0
:1048A00003B96065616B2F60B9B104F144039942AB
:1048B00002D02846FFF7F4FB002363630DE00123D9
:1048C0002846B0470246501CC9D12B68002BC6D0E1
:1048D0001D2B01D0162B1ED12F60002022E043F0AB
:1048E00040031BB21BE00F69002FF6D093070E6840
:1048F00008BF4B690F6018BF0023A6EB07088B6049
:10490000B8F1000FE9DD216AA66A43463A46284617
:10491000B047002808DCB4F90C3043F04003A38111
:104920004FF0FF30BDE8F0810744A8EB0008E7E74F
:104930000100402038B50B6905460C4613B9002527
:10494000284638BD18B1036A0BB9FFF7A1F9B4F9CD
:104950000C30002BF3D0626ED00704D4990502D43A
:10496000A06DFFF78CFB28462146FFF75FFF636EC3
:10497000DA070546E4D4A3899B05E1D4A06DFFF7CF
:104980007FFBDDE770B50C46B1F90E10002996B03B
:1049900015461E460DDAA38913F0800F4FF0000173
:1049A00014BF40234FF48063002031602B6016B0A9
:1049B00070BD6A4600F048F80028ECDB019901F46C
:1049C0007041A1F50053594259414FF48063EBE720
:1049D0008B89F7B59D0706460C4607D504F14703BA
:1049E000236023610123636103B0F0BD01AB6A461C
:1049F000FFF7C8FF009F054639463046FFF7BCFB6E
:104A000048B9B4F90C309A05EED423F0030343F00F
:104A10000203A381E2E7A389206043F08003A3811E
:104A2000019BC4E904075BB1B4F90E10304600F0F5
:104A30001DF828B1A38923F0030343F00103A381E8
:104A4000A3891D43A581CFE738B5074D0023044650
:104A5000084611462B60FCF759FF431C02D12B6816
:104A600003B1236038BD00BFF803002038B5064D00
:104A70000023044608462B60FCF758FF431C02D174
:104A80002B6803B1236038BDF803002038B5064D0C
:104A90000023044608462B60FCF760FF431C02D14C
:104AA0002B6803B1236038BDF8030020F8B500BFC0
:104AB000F8BC08BC9E467047F8B500BFF8BC08BCFF
:044AC0009E46704757
:104AC4003D3D3D204C6F526120536C617665204919
:104AD4006E697469616C697A6174696F6E203D3DB9
:104AE4003D0D0000486172647761726520726573E0
:104AF40065742E2E2E0D0000436F6E666967757205
:104B0400696E67204C6F5261206D6F64756C652E01
:104B14002E2E0D0053583132373620566572736984
:104B24006F6E3A203078253032580D0A00000000AC
:104B3400E29C93204C6F5261206D6F64756C65200C
:104B4400646574656374656420616E6420636F6E6C
:104B5400666967757265640D00000000E29C972029
:104B64004C6F5261206D6F64756C65206E6F74209C
:104B740064657465637465640D0000005374617248
:104B840074696E67205258206D6F64652E2E2E0D49
:104B940000000000E29C93205258206D6F64652051
:104BA400616374697665202D204C697374656E6940
:104BB4006E672E2E2E0D0000E29C972043616E6ED0
:104BC4006F7420656E746572205258206D6F646531
:104BD4003A2025640D0A0000E29AA0204C6F63611C
:104BE4006C206D6F64756C6520636F6D6D756E6997
:104BF400636174696F6E206661696C65640D0000A1
:104C0400E29C93204C6F526120636F6E6E656374F7
:104C1400696F6E2065737461626C69736865642082
:104C240028726563656976696E67206461746129B9
:104C34000D000000E29AA0204C6F526120636F6E59
:104C44006E656374696F6E2074696D656F75740D3C
:104C5400000000004D6F64756C65206E6F742069F0
:104C64006E205258206D6F646520284F704D6F641C
:104C7400653A2030782530325829202D205265732A
:104C840074617274696E672052582E2E2E0D0A00BC
:104C9400E29C93204D45535341474520524543459B
:104CA40049564544202325642028256420627974CC
:104CB4006573293A20272573270D0A00E29C932067
:104CC4004C6F526120636F6E6E656374696F6E2002
:104CD40065737461626C69736865640D000000003B
:104CE4003D3D3D204C6F52612052657365742061D7
:104CF4006E64205265696E6974203D3D3D0D00006F
:104D0400E29C93204C6F5261207265696E697469EC
:104D1400616C697A65642073756363657373667522
:104D24006C6C790D00000000E29C97204C6F52617E
:104D3400207265696E697469616C697A6174696FFE
:104D44006E206661696C65640D0000000D00000052
:104D54003D3D3D3D3D3D3D3D3D3D3D3D3D3D3D3D7F
:104D64003D3D3D3D3D3D3D3D3D3D3D3D3D3D3D3D6F
:104D74003D3D3D3D3D3D3D3D3D3D3D3D3D3D3D3D5F
:104D84003D3D3D3D0D000000202020204C6F526130
:104D940020536C617665205265636569766572207F
:104DA4002D2053544D33324634303756470D0000CE
:104DB40053544D3332463430375F534C4156455F7C
:104DC400303031004465766963652049443A2025D2
:104DD400730D0A004D6F64653A20536C617665204B
:104DE400285265636569766572290D004C69737490
:104DF400656E696E6720666F723A204C6F5261204F
:104E04006D657373616765730D00000046726571AB
:104E140075656E63793A20383638204D487A0D002E
:104E24004275666665722053697A653A2025642066
:104E340062797465730D0A004C454420537461749F
:104E440075733A0D000000002020424C5545202087
:104E5400203A20536C617665204D6F6465202841AB
:104E64006C77617973204F4E290D000020204F523A
:104E7400414E4745203A204C6F526120436F6E6E7D
:104E8400656374696F6E2045737461626C697368DD
:104E940065640D002020475245454E20203A204DA0
:104EA40065737361676520526563657074696F6EBD
:104EB40020537563636573730D0000002020524511
:104EC40044202020203A20526563657074696F6E17
:104ED400204572726F722028426C696E6B696E672E
:104EE400290D0000435249544943414C3A204C6F28
:104EF400526120696E697469616C697A6174696F61
:104F04006E206661696C6564210D0000435249544A
:104F14004943414C3A2043616E6E6F74207374614F
:104F24007274205258206D6F6465210D00000000DA
:104F34005374617274696E67207265636570746915
:104F44006F6E206C6F6F702E2E2E0D00E29C9320DE
:104F5400526563657074696F6E20737563636573FE
:104F64007366756C202D2057616974696E672066BD
:104F74006F72206E657874206D6573736167652E3A
:104F84002E2E0D002D2057616974696E6720666F9F
:104F940072204C6F526120636F6E6E656374696F2B
:104FA4006E2E2E2E0D000000E29AA0204D6F647527
:104FB4006C65206865616C746820636865636B2048
:104FC4006661696C6564202876657273696F6E3AF0
:104FD4002030782530325829202D2052657365748D
:104FE40074696E672E2E2E0D0A000000E29C932039
:104FF4004D6F64756C65206865616C7468206368C6
:1050040065636B204F4B0D00E29AA0204D6F6475D1
:105014006C65206E6F7420696E205258206D6F6429
:1050240065202D2052657374617274696E67205215
:10503400582E2E2E0D000000FFFCF9F60607080975
:105044000A0B0C000001020304050607080900000E
:105054000102030401000000000000000000000041
:10506400010203040607080900000000010203040A
:10507400232D302B2000686C4C006566674546473D
:1050840000303132333435363738394142434445C0
:10509400460030313233343536373839616263642F
:0450A400656600003D
:0850A80028B1FF7F01000000A8
:0450B000B50100083E
:0450B400910100085E
:1050B8000024F400100000000100000000000000BF
:1050C80003000000BC0200201C00002000000000BB
:1050D800BC020020240300208C03002000000000F4
:1050E80000000000000000000000000000000000B8
:1050F80000000000000000000000000000000000A8
:105108000000000000000000000000000000000097
:0851180000000000000000008F
:0400000508001A4194
:00000001FF
